:100000000C942A000C9447000C9447000C94470071
:100010000C9447000C9447000C9447000C94470044
:100020000C9447000C9447000C9447000C941B0858
:100030000C9447000C9447000C9447000C94470024
:100040000C9447000C9447000C9447000C94470014
:100050000C94470011241FBECFE5D8E0DEBFCDBF12
:1000600010E0A8E6B0E001C01D92AF36B107E1F79D
:1000700010E0A0E6B0E0EEE2F4E102C005900D92DF
:10008000A836B107D9F70E94EC080C94150A0C9415
:100090000000EF92FF920F931F937B018C0120E0F1
:1000A00030E040E05FE40E94490388238CF0C801FF
:1000B000B70120E030E040E05FE40E94C1010E940F
:1000C000A9039B01AC01205030404040504806C07D
:1000D000C801B7010E94A9039B01AC01B901CA0183
:1000E0001F910F91FF90EF900895A0E0B0E0EBE733
:1000F000F0E00C94DE09DC012B01FA019C919230B6
:1001000008F439C1EB018881823008F433C194309E
:1001100069F4843009F02FC111969C91119789815F
:10012000981709F428C1A0E6B0E025C1843009F48D
:1001300021C18230A9F4923009F01DC19A01AD01AC
:1001400088E0EA010990AE01E90109929E0181501F
:10015000C1F7E201898111969C918923818308C1AD
:10016000923009F407C112962D903C901397EB0141
:100170008A819B811496AD90BD90CD90DC901797AD
:10018000EC80FD800E811F819101281B390BB90184
:1001900037FF04C066277727621B730B6032710537
:1001A0000CF061C0121613066CF537014801062EDB
:1001B00004C096948794779467940A94D2F721E0C8
:1001C00030E040E050E004C0220F331F441F551FB1
:1001D0006A95D2F721503040404050402E213F21B7
:1001E00040235123211531054105510521F021E01E
:1001F00030E040E050E079018A01E628F72808293C
:1002000019293CC0232BD1F1260E371E350146019A
:10021000062E04C096948794779467940A94D2F734
:1002200021E030E040E050E004C0220F331F441FC3
:10023000551F6A95D2F721503040404050402A2146
:100240003B214C215D21211531054105510521F04E
:1002500021E030E040E050E059016A01A628B728CB
:10026000C828D9280BC0821593052CF01C01AA249C
:10027000BB24650103C0EE24FF24870111969C91E5
:10028000D20111968C91981709F445C0992339F041
:10029000A80197012A193B094C095D0906C0A6016E
:1002A00095012E193F09400B510B57FD08C01182D3
:1002B0003382228224833583468357831DC081E0A5
:1002C00081833382228288279927DC01821B930B4A
:1002D000A40BB50B84839583A683B7830DC0220F2F
:1002E000331F441F551F24833583468357838281E0
:1002F000938101979383828324813581468157813D
:10030000DA01C9010197A109B1098F5F9F4FAF4F72
:10031000BF4328F30BC0918333822282EA0CFB1C7B
:100320000C1D1D1DE482F5820683178383E0808304
:10033000248135814681578157FF1AC0C901AA27F8
:1003400097FDA095BA2F81709070A070B0705695EF
:10035000479537952795822B932BA42BB52B848318
:100360009583A683B7838281938101969383828349
:10037000DF0101C0D201CD01CDB7DEB7E2E10C94BF
:10038000FA09A0E2B0E0E7ECF1E00C94EA09698335
:100390007A838B839C832D833E834F835887E9E048
:1003A000EE2EF12CEC0EFD1ECE010196B7010E943F
:1003B000D2048E010F5E1F4FCE010596B8010E9438
:1003C000D2048A8991E089278A8BC701B801AE01DE
:1003D000475E5F4F0E9475000E94FD03A096E6E015
:1003E0000C94060AA0E2B0E0E8EFF1E00C94EA0910
:1003F00069837A838B839C832D833E834F835887C5
:10040000F9E0EF2EF12CEC0EFD1ECE010196B701A6
:100410000E94D2048E010F5E1F4FCE010596B801D7
:100420000E94D204C701B801AE01475E5F4F0E942F
:1004300075000E94FD03A096E6E00C94060AA0E277
:10044000B0E0E5E2F2E00C94DE0969837A838B8305
:100450009C832D833E834F835887CE010196BE0136
:10046000675F7F4F0E94D204CE010596BE016F5E8A
:100470007F4F0E94D2049985923088F0898982301A
:10048000C8F0943019F4823051F404C0843029F457
:10049000923081F480E690E0C6C0923049F420E0CA
:1004A0009A858A89981321E02A87CE010996BBC0D4
:1004B000823049F420E09A858A89981321E02A8BBA
:1004C000CE014196B0C02D843E844F8458886D88FB
:1004D0007E888F88988CEE24FF248701AA24BB2471
:1004E000650140E050E060E070E0E0E0F0E0C10174
:1004F00081709070892BE9F0E60CF71C081D191D1E
:100500009A01AB012A0D3B1D4C1D5D1D80E090E062
:10051000A0E0B0E0E614F7040805190520F481E036
:1005200090E0A0E0B0E0BA01A901480F591F6A1F8E
:100530007B1FAA0CBB1CCC1CDD1C97FE08C081E0F5
:1005400090E0A0E0B0E0A82AB92ACA2ADB2A3196B6
:10055000E032F10549F0660C771C881C991C569412
:10056000479437942794C3CFFA85EA892B893C892D
:100570008B859C85280F391F2E5F3F4F17C0CA01FE
:1005800081709070892B61F016950795F794E79428
:1005900080E090E0A0E0B0E8E82AF92A0A2B1B2BC3
:1005A00076956795579547952F5F3F4F77FDE7CF36
:1005B0000CC0440F551F661F771F17FD4160EE0CDE
:1005C000FF1C001F111F21503040403090E05907A0
:1005D00090E0690790E4790760F32B8F3C8FDB0193
:1005E000CA018F779070A070B07080349105A1051A
:1005F000B10561F447FD0AC0E114F10401051105DC
:1006000029F0405C5F4F6F4F7F4F40781A8EFE1786
:1006100011F081E08A8F4D8F5E8F6F8F78A383E01A
:10062000898FCE0149960E94FD03A096E2E10C94C9
:10063000FA09A8E1B0E0EFE1F3E00C94EA0969837C
:100640007A838B839C832D833E834F83588789E0F5
:10065000E82EF12CEC0EFD1ECE010196B7010E9492
:10066000D2048E010F5E1F4FCE010596B8010E9485
:10067000D2048985823040F08989823028F0C70110
:10068000B8010E944A0501C08FEF6896E6E00C941D
:10069000060AA8E1B0E0EFE4F3E00C94EA0969830C
:1006A0007A838B839C832D833E834F83588789E095
:1006B000E82EF12CEC0EFD1ECE010196B7010E9432
:1006C000D2048E010F5E1F4FCE010596B8010E9425
:1006D000D2048985823040F08989823028F0C701B0
:1006E000B8010E944A0501C08FEF6896E6E00C94BD
:1006F000060AA8E1B0E0EFE7F3E00C94EA096983A9
:100700007A838B839C832D833E834F83588789E034
:10071000E82EF12CEC0EFD1ECE010196B7010E94D1
:10072000D2048E010F5E1F4FCE010596B8010E94C4
:10073000D2048985823040F08989823028F0C7014F
:10074000B8010E944A0501C081E06896E6E00C9479
:10075000060AACE0B0E0EFEAF3E00C94EE0969833E
:100760007A838B839C83CE010196BE016B5F7F4FA2
:100770000E94D2048D81823061F1823050F1843048
:1007800021F48E81882351F12EC02F81388537FDC9
:1007900020C06E812F3131051CF06623F9F023C093
:1007A0008EE190E0821B930B29853A854B855C8511
:1007B00004C056954795379527958A95D2F76623B5
:1007C000B1F050954095309521953F4F4F4F5F4F79
:1007D0000EC020E030E040E050E009C02FEF3FEFD6
:1007E0004FEF5FE704C020E030E040E050E8B9019F
:1007F000CA012C96E2E00C940A0ADF92EF92FF9273
:100800000F931F93FC01E480F58006811781D1804E
:100810008081823048F480E090E0A0E1B0E0E82AF6
:10082000F92A0A2B1B2BA5C0843009F49FC0823003
:1008300021F4EE24FF24870105C0E114F104010531
:10084000110519F4E0E0F0E096C0628173819FEF3A
:10085000623879070CF05BC022E83FEF261B370BAC
:100860002A3131052CF020E030E040E050E02AC091
:10087000B801A701022E04C0769567955795479554
:100880000A94D2F781E090E0A0E0B0E004C0880FC5
:10089000991FAA1FBB1F2A95D2F70197A109B10979
:1008A0008E219F21A023B1230097A105B10521F03E
:1008B00081E090E0A0E0B0E09A01AB01282B392B59
:1008C0004A2B5B2BDA01C9018F779070A070B07052
:1008D00080349105A105B10539F427FF09C0205CDA
:1008E0003F4F4F4F5F4F04C0215C3F4F4F4F5F4F13
:1008F000E0E0F0E02030A0E03A07A0E04A07A0E402
:100900005A0710F0E1E0F0E079018A0127C0603871
:10091000710564F5FB01E158FF4FD801C7018F77DE
:100920009070A070B07080349105A105B10539F4C4
:10093000E7FE0DC080E490E0A0E0B0E004C08FE3EB
:1009400090E0A0E0B0E0E80EF91E0A1F1B1F17FFA1
:1009500005C016950795F794E794319687E01695AC
:100960000795F794E7948A95D1F705C0EE24FF2404
:100970008701EFEFF0E06E2F679566276795902F60
:100980009F77D794DD24D7948E2F8695492F462BB9
:10099000582F5D29B701CA011F910F91FF90EF9069
:1009A000DF900895FC01DB01408151812281622F9B
:1009B0006F7770E0221F2227221F9381892F880FD3
:1009C000822B282F30E0991F9927991F11969C930D
:1009D000119721153105A9F54115510561057105DD
:1009E00011F482E037C082E89FEF13969C938E93B8
:1009F00012979A01AB0167E0220F331F441F551F66
:100A00006A95D1F783E08C930DC0220F331F441FEA
:100A1000551F12968D919C911397019713969C9355
:100A20008E931297203080E0380780E0480780E4FA
:100A3000580758F314962D933D934D935C93179755
:100A400008952F3F310579F4411551056105710570
:100A500019F484E08C93089564FF03C081E08C93C3
:100A600012C01C9210C02F57304013963C932E9307
:100A7000129783E08C9387E0440F551F661F771F02
:100A80008A95D1F7706414964D935D936D937C9322
:100A9000179708951F93DC01FB019C91923008F495
:100AA00047C08081823008F443C0943051F41196DD
:100AB0001C91843099F58181682F70E0611B710968
:100AC0003FC0843021F0923031F48230B9F181811D
:100AD000882389F12DC011961C9111978230F1F075
:100AE00081811817D9F412962D913C911397828128
:100AF00093818217930794F028173907BCF0149656
:100B00008D919D910D90BC91A02D248135814681C0
:100B10005781281739074A075B0718F4112341F05A
:100B20000AC082179307A407B50740F4112319F0F0
:100B300061E070E005C06FEF7FEF02C060E070E041
:100B4000CB011F910895DF93CF93CDB7DEB7A6E217
:100B5000B0E0E6E2F0E0808180688C93A6E2B0E04D
:100B6000E6E2F0E0808181608C93A6E2B0E0E6E20C
:100B7000F0E0808182608C93A6E2B0E0E6E2F0E0F3
:100B8000808184608C93A7E2B0E0E7E2F0E08081AE
:100B900080628C93CF91DF910895DF93CF930F9272
:100BA000CDB7DEB78983E7E2F0E0898187708064A2
:100BB0008083A6E2B0E0E6E2F0E0808180648C937E
:100BC000E6E2F0E08081882F90E0807190700097DD
:100BD000B9F3A6E2B0E0E6E2F0E0808180618C93B8
:100BE000E4E2F0E0808191810F90CF91DF91089550
:100BF000DF93CF9300D000D0CDB7DEB780E00E9466
:100C0000CD05882F90E09C838B832B813C81C9018B
:100C1000880F991F880F991F820F931F2AEF30E0CA
:100C2000B9010E94B709CB019A83898389819A818E
:100C30008430910544F0A5E3B0E0E5E3F0E0808185
:100C400081608C9307C0A5E3B0E0E5E3F0E080812C
:100C50008E7F8C930F900F900F900F90CF91DF911C
:100C60000895DF93CF93CDB7DEB7EAE2F0E088E1F5
:100C70008083E0E4F0E086E88083E9E2F0E083E36B
:100C80008083CF91DF910895DF93CF930F92CDB7FB
:100C9000DEB78983EBE2F0E08081882F90E08072FC
:100CA00090700097B9F3ECE2F0E0898180830F90B7
:100CB000CF91DF910895DF93CF930F92CDB7DEB739
:100CC000EBE2F0E080818823DCF7ECE2F0E0808169
:100CD000898389810F90CF91DF910895DF93CF931E
:100CE000CDB7DEB72E970FB6F894DEBF0FBECDBFDF
:100CF000A2E3B0E0E2E3F0E0808180628C93A2E3C3
:100D0000B0E0E2E3F0E080818F7B8C9380E090E0C4
:100D1000AAE7B4E48B879C87AD87BE876B857C850B
:100D20008D859E8520E030E04AE753E40E941F0253
:100D3000DC01CB018F839887A987BA876F8178857B
:100D400089859A8520E030E040E85FE30E947903DE
:100D500088232CF481E090E09E838D833FC06F81D7
:100D6000788589859A8520E03FEF4FE757E40E9418
:100D7000190318164CF56B857C858D859E8520E0C2
:100D800030E040E251E40E941F02DC01CB01BC01D3
:100D9000CD010E944900DC01CB019E838D830FC0F1
:100DA00089E190E09C838B838B819C810197F1F793
:100DB0009C838B838D819E8101979E838D838D8102
:100DC0009E81009769F714C06F81788589859A851F
:100DD0000E944900DC01CB019E838D838D819E8121
:100DE0009A83898389819A810197F1F79A8389830C
:100DF000A2E3B0E0E2E3F0E080818F7D8C93A2E398
:100E0000B0E0E2E3F0E080818F7B8C932E960FB60A
:100E1000F894DEBF0FBECDBFCF91DF910895DF9371
:100E2000CF93CDB7DEB72E970FB6F894DEBF0FBEC7
:100E3000CDBFA2E3B0E0E2E3F0E0808180648C9378
:100E4000A2E3B0E0E2E3F0E080818F7D8C9380E06C
:100E500090E0AAE7B4E48B879C87AD87BE876B855B
:100E60007C858D859E8520E030E04AE753E40E9432
:100E70001F02DC01CB018F839887A987BA876F8116
:100E8000788589859A8520E030E040E85FE30E941C
:100E9000790388232CF481E090E09E838D833FC00A
:100EA0006F81788589859A8520E03FEF4FE757E489
:100EB0000E94190318164CF56B857C858D859E85DF
:100EC00020E030E040E251E40E941F02DC01CB014F
:100ED000BC01CD010E944900DC01CB019E838D83C2
:100EE0000FC089E190E09C838B838B819C8101976B
:100EF000F1F79C838B838D819E8101979E838D83E7
:100F00008D819E81009769F714C06F8178858985EE
:100F10009A850E944900DC01CB019E838D838D81DF
:100F20009E819A83898389819A810197F1F79A83B7
:100F30008983A2E3B0E0E2E3F0E080818F7B8C93D1
:100F4000A2E3B0E0E2E3F0E080818F7D8C932E9607
:100F50000FB6F894DEBF0FBECDBFCF91DF910895DD
:100F6000DF93CF93CDB7DEB7A5E3B0E0E5E3F0E0E4
:100F7000908180E889278C93CF91DF910895DF934A
:100F8000CF93CDB7DEB7E8E3F0E08FEF8083E3E502
:100F9000F0E089E68083E9E5F0E082E08083ECE53B
:100FA000F0E01082CF91DF910895DF93CF93CDB71A
:100FB000DEB7E8E3F0E08FEF8083E3E5F0E089E679
:100FC0008083E9E5F0E082E08083ECE5F0E080E416
:100FD0008083CF91DF910895DF93CF93CDB7DEB7B4
:100FE000E8E3F0E08FEF8083E3E5F0E089E68083DB
:100FF000E9E5F0E082E08083ECE5F0E080E88083E2
:10100000CF91DF910895DF93CF93CDB7DEB7EAE3B9
:10101000F0E01082E7E3F0E08FEF8083E4E3F0E0BC
:101020008FEF8083E1E3F0E080EE80830E94310661
:10103000CF91DF9108951F920F920FB60F92112456
:101040002F933F934F935F936F937F938F939F93D0
:10105000AF93BF93EF93FF93DF93CF9300D0CDB7C0
:10106000DEB7E2E5F0E08CE9808380916800909142
:1010700069000196909369008093680080916D00EB
:10108000282F30E03A83298389819A818D36910512
:1010900009F450C029813A812F36310531F0898118
:1010A0009A818636910521F16EC0809168009091F9
:1010B00069008431910541F4A2E3B0E0E2E3F0E09D
:1010C00080818F778C935FC08091680090916900D8
:1010D000883C910509F057C0A2E3B0E0E2E3F0E0FC
:1010E000808180688C9310926900109268004BC0D8
:1010F00080916800909169008A30910541F4A2E3E3
:10110000B0E0E2E3F0E080818F778C933CC0809187
:1011100068009091690084369105A9F5A2E3B0E0DA
:10112000E2E3F0E0808180688C9310926900109275
:10113000680029C00E945B0680936D0080916D005D
:10114000282F30E0809168009091690028173907B6
:1011500041F4A2E3B0E0E2E3F0E080818F778C938A
:1011600012C08091680090916900883C910559F403
:10117000A2E3B0E0E2E3F0E0808180688C9310921B
:101180006900109268000F900F90CF91DF91FF914E
:10119000EF91BF91AF919F918F917F916F915F91EF
:1011A0004F913F912F910F900FBE0F901F90189568
:1011B000DF93CF93CDB7DEB7E3E5F0E082E0808345
:1011C000E2E3F0E080E88083E9E5F0E081E080831D
:1011D0007894CF91DF910895DF93CF93CDB7DEB7A9
:1011E00060970FB6F894DEBF0FBECDBF0E94A30577
:1011F0000E9403080E94F80580E090E0A8E4B2E4B1
:101200008B879C87AD87BE876B857C858D859E850A
:1012100020E030E04AE753E40E941F02DC01CB01EA
:101220008F839887A987BA876F81788589859A8502
:1012300020E030E040E85FE30E94790388232CF44B
:1012400081E090E09E838D833FC06F8178858985A2
:101250009A8520E03FEF4FE757E40E9419031816E4
:101260004CF56B857C858D859E8520E030E040E2E5
:1012700051E40E941F02DC01CB01BC01CD010E94A0
:101280004900DC01CB019E838D830FC089E190E092
:101290009C838B838B819C810197F1F79C838B834B
:1012A0008D819E8101979E838D838D819E81009784
:1012B00069F714C06F81788589859A850E944900F5
:1012C000DC01CB019E838D838D819E819A838983EE
:1012D00089819A810197F1F79A8389830E945B063D
:1012E00080936D0080916D00282F30E0388B2F8720
:1012F0008F8598898433910571F12F85388925333D
:10130000310584F48F85988982339105F1F02F851A
:10131000388923333105E4F48F8598898133910529
:1013200089F068CF2F85388926333105D1F08F8534
:1013300098898633910594F02F85388927333105B4
:1013400099F058CF0E94B00755CF0E94BF0752CFE7
:101350000E94D5074FCF0E94EC074CCF0E946E062B
:1013600049CF0E940F0746CF0E94D80843CF97FB72
:10137000092E07260AD077FD04D00CD006D0002015
:101380001AF4709561957F4F0895F6F790958195C1
:101390009F4F0895AA1BBB1B51E107C0AA1FBB1F8B
:1013A000A617B70710F0A61BB70B881F991F5A95F1
:1013B000A9F780959095BC01CD0108952F923F9299
:1013C0004F925F926F927F928F929F92AF92BF9255
:1013D000CF92DF92EF92FF920F931F93CF93DF9301
:1013E000CDB7DEB7CA1BDB0B0FB6F894DEBF0FBE5E
:1013F000CDBF09942A88398848885F846E847D84AB
:101400008C849B84AA84B984C884DF80EE80FD80AC
:101410000C811B81AA81B981CE0FD11D0FB6F89422
:0E142000DEBF0FBECDBFED010895F894FFCFE3
:08142E000000000000000000B6
:00000001FF
