:100000000C942A000C9447000C9447000C94470071
:100010000C9447000C9447000C9447000C94470044
:100020000C9447000C9447000C9447000C94470034
:100030000C9447000C9447000C9447000C94470024
:100040000C9447000C9447000C9447000C94470014
:100050000C94470011241FBECFE5D8E0DEBFCDBF12
:1000600010E0A0E6B0E0E2E7F6E402C005900D92F1
:10007000AE3BB107D9F710E0AEEBB0E001C01D9286
:10008000AF3BB107E1F70E94CA0E0C9437230C94E2
:100090000000EF92FF920F931F937B018C0120E0F1
:1000A00030E040E05FE40E94490388238CF0C801FF
:1000B000B70120E030E040E05FE40E94C1010E940F
:1000C000A9039B01AC01205030404040504806C07D
:1000D000C801B7010E94A9039B01AC01B901CA0183
:1000E0001F910F91FF90EF900895A0E0B0E0EBE733
:1000F000F0E00C94F722DC012B01FA019C91923084
:1001000008F439C1EB018881823008F433C194309E
:1001100069F4843009F02FC111969C91119789815F
:10012000981709F428C1A6EAB0E025C1843009F483
:1001300021C18230A9F4923009F01DC19A01AD01AC
:1001400088E0EA010990AE01E90109929E0181501F
:10015000C1F7E201898111969C918923818308C1AD
:10016000923009F407C112962D903C901397EB0141
:100170008A819B811496AD90BD90CD90DC901797AD
:10018000EC80FD800E811F819101281B390BB90184
:1001900037FF04C066277727621B730B6032710537
:1001A0000CF061C0121613066CF537014801062EDB
:1001B00004C096948794779467940A94D2F721E0C8
:1001C00030E040E050E004C0220F331F441F551FB1
:1001D0006A95D2F721503040404050402E213F21B7
:1001E00040235123211531054105510521F021E01E
:1001F00030E040E050E079018A01E628F72808293C
:1002000019293CC0232BD1F1260E371E350146019A
:10021000062E04C096948794779467940A94D2F734
:1002200021E030E040E050E004C0220F331F441FC3
:10023000551F6A95D2F721503040404050402A2146
:100240003B214C215D21211531054105510521F04E
:1002500021E030E040E050E059016A01A628B728CB
:10026000C828D9280BC0821593052CF01C01AA249C
:10027000BB24650103C0EE24FF24870111969C91E5
:10028000D20111968C91981709F445C0992339F041
:10029000A80197012A193B094C095D0906C0A6016E
:1002A00095012E193F09400B510B57FD08C01182D3
:1002B0003382228224833583468357831DC081E0A5
:1002C00081833382228288279927DC01821B930B4A
:1002D000A40BB50B84839583A683B7830DC0220F2F
:1002E000331F441F551F24833583468357838281E0
:1002F000938101979383828324813581468157813D
:10030000DA01C9010197A109B1098F5F9F4FAF4F72
:10031000BF4328F30BC0918333822282EA0CFB1C7B
:100320000C1D1D1DE482F5820683178383E0808304
:10033000248135814681578157FF1AC0C901AA27F8
:1003400097FDA095BA2F81709070A070B0705695EF
:10035000479537952795822B932BA42BB52B848318
:100360009583A683B7838281938101969383828349
:10037000DF0101C0D201CD01CDB7DEB7E2E10C94BF
:100380001323A0E2B0E0E7ECF1E00C9403236983CF
:100390007A838B839C832D833E834F835887E9E048
:1003A000EE2EF12CEC0EFD1ECE010196B7010E943F
:1003B000D2048E010F5E1F4FCE010596B8010E9438
:1003C000D2048A8991E089278A8BC701B801AE01DE
:1003D000475E5F4F0E9475000E94FD03A096E6E015
:1003E0000C941F23A0E2B0E0E8EFF1E00C940323AB
:1003F00069837A838B839C832D833E834F835887C5
:10040000F9E0EF2EF12CEC0EFD1ECE010196B701A6
:100410000E94D2048E010F5E1F4FCE010596B801D7
:100420000E94D204C701B801AE01475E5F4F0E942F
:1004300075000E94FD03A096E6E00C941F23A0E245
:10044000B0E0E5E2F2E00C94F72269837A838B83D3
:100450009C832D833E834F835887CE010196BE0136
:10046000675F7F4F0E94D204CE010596BE016F5E8A
:100470007F4F0E94D2049985923088F0898982301A
:10048000C8F0943019F4823051F404C0843029F457
:10049000923081F486EA90E0C6C0923049F420E0C0
:1004A0009A858A89981321E02A87CE010996BBC0D4
:1004B000823049F420E09A858A89981321E02A8BBA
:1004C000CE014196B0C02D843E844F8458886D88FB
:1004D0007E888F88988CEE24FF248701AA24BB2471
:1004E000650140E050E060E070E0E0E0F0E0C10174
:1004F00081709070892BE9F0E60CF71C081D191D1E
:100500009A01AB012A0D3B1D4C1D5D1D80E090E062
:10051000A0E0B0E0E614F7040805190520F481E036
:1005200090E0A0E0B0E0BA01A901480F591F6A1F8E
:100530007B1FAA0CBB1CCC1CDD1C97FE08C081E0F5
:1005400090E0A0E0B0E0A82AB92ACA2ADB2A3196B6
:10055000E032F10549F0660C771C881C991C569412
:10056000479437942794C3CFFA85EA892B893C892D
:100570008B859C85280F391F2E5F3F4F17C0CA01FE
:1005800081709070892B61F016950795F794E79428
:1005900080E090E0A0E0B0E8E82AF92A0A2B1B2BC3
:1005A00076956795579547952F5F3F4F77FDE7CF36
:1005B0000CC0440F551F661F771F17FD4160EE0CDE
:1005C000FF1C001F111F21503040403090E05907A0
:1005D00090E0690790E4790760F32B8F3C8FDB0193
:1005E000CA018F779070A070B07080349105A1051A
:1005F000B10561F447FD0AC0E114F10401051105DC
:1006000029F0405C5F4F6F4F7F4F40781A8EFE1786
:1006100011F081E08A8F4D8F5E8F6F8F78A383E01A
:10062000898FCE0149960E94FD03A096E2E10C94C9
:100630001323A8E1B0E0EFE1F3E00C940323698316
:100640007A838B839C832D833E834F83588789E0F5
:10065000E82EF12CEC0EFD1ECE010196B7010E9492
:10066000D2048E010F5E1F4FCE010596B8010E9485
:10067000D2048985823040F08989823028F0C70110
:10068000B8010E944A0501C08FEF6896E6E00C941D
:100690001F23A8E1B0E0EFE4F3E00C9403236983A7
:1006A0007A838B839C832D833E834F83588789E095
:1006B000E82EF12CEC0EFD1ECE010196B7010E9432
:1006C000D2048E010F5E1F4FCE010596B8010E9425
:1006D000D2048985823040F08989823028F0C701B0
:1006E000B8010E944A0501C08FEF6896E6E00C94BD
:1006F0001F23A8E1B0E0EFE7F3E00C940323698344
:100700007A838B839C832D833E834F83588789E034
:10071000E82EF12CEC0EFD1ECE010196B7010E94D1
:10072000D2048E010F5E1F4FCE010596B8010E94C4
:10073000D2048985823040F08989823028F0C7014F
:10074000B8010E944A0501C081E06896E6E00C9479
:100750001F23ACE0B0E0EFEAF3E00C9407236983D9
:100760007A838B839C83CE010196BE016B5F7F4FA2
:100770000E94D2048D81823061F1823050F1843048
:1007800021F48E81882351F12EC02F81388537FDC9
:1007900020C06E812F3131051CF06623F9F023C093
:1007A0008EE190E0821B930B29853A854B855C8511
:1007B00004C056954795379527958A95D2F76623B5
:1007C000B1F050954095309521953F4F4F4F5F4F79
:1007D0000EC020E030E040E050E009C02FEF3FEFD6
:1007E0004FEF5FE704C020E030E040E050E8B9019F
:1007F000CA012C96E2E00C942323DF92EF92FF9241
:100800000F931F93FC01E480F58006811781D1804E
:100810008081823048F480E090E0A0E1B0E0E82AF6
:10082000F92A0A2B1B2BA5C0843009F49FC0823003
:1008300021F4EE24FF24870105C0E114F104010531
:10084000110519F4E0E0F0E096C0628173819FEF3A
:10085000623879070CF05BC022E83FEF261B370BAC
:100860002A3131052CF020E030E040E050E02AC091
:10087000B801A701022E04C0769567955795479554
:100880000A94D2F781E090E0A0E0B0E004C0880FC5
:10089000991FAA1FBB1F2A95D2F70197A109B10979
:1008A0008E219F21A023B1230097A105B10521F03E
:1008B00081E090E0A0E0B0E09A01AB01282B392B59
:1008C0004A2B5B2BDA01C9018F779070A070B07052
:1008D00080349105A105B10539F427FF09C0205CDA
:1008E0003F4F4F4F5F4F04C0215C3F4F4F4F5F4F13
:1008F000E0E0F0E02030A0E03A07A0E04A07A0E402
:100900005A0710F0E1E0F0E079018A0127C0603871
:10091000710564F5FB01E158FF4FD801C7018F77DE
:100920009070A070B07080349105A105B10539F4C4
:10093000E7FE0DC080E490E0A0E0B0E004C08FE3EB
:1009400090E0A0E0B0E0E80EF91E0A1F1B1F17FFA1
:1009500005C016950795F794E794319687E01695AC
:100960000795F794E7948A95D1F705C0EE24FF2404
:100970008701EFEFF0E06E2F679566276795902F60
:100980009F77D794DD24D7948E2F8695492F462BB9
:10099000582F5D29B701CA011F910F91FF90EF9069
:1009A000DF900895FC01DB01408151812281622F9B
:1009B0006F7770E0221F2227221F9381892F880FD3
:1009C000822B282F30E0991F9927991F11969C930D
:1009D000119721153105A9F54115510561057105DD
:1009E00011F482E037C082E89FEF13969C938E93B8
:1009F00012979A01AB0167E0220F331F441F551F66
:100A00006A95D1F783E08C930DC0220F331F441FEA
:100A1000551F12968D919C911397019713969C9355
:100A20008E931297203080E0380780E0480780E4FA
:100A3000580758F314962D933D934D935C93179755
:100A400008952F3F310579F4411551056105710570
:100A500019F484E08C93089564FF03C081E08C93C3
:100A600012C01C9210C02F57304013963C932E9307
:100A7000129783E08C9387E0440F551F661F771F02
:100A80008A95D1F7706414964D935D936D937C9322
:100A9000179708951F93DC01FB019C91923008F495
:100AA00047C08081823008F443C0943051F41196DD
:100AB0001C91843099F58181682F70E0611B710968
:100AC0003FC0843021F0923031F48230B9F181811D
:100AD000882389F12DC011961C9111978230F1F075
:100AE00081811817D9F412962D913C911397828128
:100AF00093818217930794F028173907BCF0149656
:100B00008D919D910D90BC91A02D248135814681C0
:100B10005781281739074A075B0718F4112341F05A
:100B20000AC082179307A407B50740F4112319F0F0
:100B300061E070E005C06FEF7FEF02C060E070E041
:100B4000CB011F910895DF93CF93CDB7DEB70E94FD
:100B5000AC0CCF91DF910895DF93CF9300D0CDB748
:100B6000DEB789836A830E94C20C80EA0E94DD0C92
:100B700089810E94DD0C8A810E94DD0C0E94D20CCA
:100B80000F900F90CF91DF910895DF93CF9300D016
:100B9000CDB7DEB78A830E94C20C80EA0E94DD0CCA
:100BA0008A810E94DD0C0E94C20C81EA0E94DD0C49
:100BB0000E94180D89830E94D20C89810F900F909A
:100BC000CF91DF9108950F931F93DF93CF93CDB70C
:100BD000DEB7C256D0400FB6F894DEBF0FBECDBF11
:100BE00080E690E00E947E0D8DE00E94540D8AE028
:100BF0000E94540DFE01E15AFF4F80E090E0AAE709
:100C0000B4E480839183A283B3838E01055A1F4F7E
:100C1000FE01E15AFF4F608171818281938120E062
:100C200030E04AEF54E40E941F02DC01CB01F801DE
:100C300080839183A283B383FE01E55AFF4F6081D5
:100C400071818281938120E030E040E85FE30E947F
:100C50007903882344F4FE01E75AFF4F81E090E0D6
:100C60009183808364C0FE01E55AFF4F60817181EA
:100C70008281938120E03FEF4FE757E40E94190300
:100C800018160CF043C0FE01E15AFF4F60817181DC
:100C90008281938120E030E040E251E40E941F0213
:100CA000DC01CB018E01075A1F4FBC01CD010E9410
:100CB0004900DC01CB01F801918380831FC0FE0154
:100CC000E95AFF4F88EC90E091838083FE01E95A56
:100CD000FF4F808191810197F1F7FE01E95AFF4FA3
:100CE00091838083DE01A75ABF4FFE01E75AFF4F71
:100CF00080819181019711969C938E93FE01E75A12
:100D0000FF4F808191810097D1F627C08E01075A4D
:100D10001F4FFE01E55AFF4F6081718182819381EF
:100D20000E944900DC01CB01F80191838083DE0140
:100D3000AB5ABF4FFE01E75AFF4F808191818D93DF
:100D40009C93FE01EB5AFF4F808191810197F1F74F
:100D5000FE01EB5AFF4F918380838AE690E00E9468
:100D60007E0D8DE00E94540D8AE00E94540DFE011C
:100D7000EF5AFF4F80E090E0AAE7B4E480839183CC
:100D8000A283B3838E01035B1F4FFE01EF5AFF4F17
:100D9000608171818281938120E030E04AEF54E4E8
:100DA0000E941F02DC01CB01F80180839183A283A2
:100DB000B383FE01E35BFF4F608171818281938188
:100DC00020E030E040E85FE30E947903882344F4A8
:100DD000FE01E55BFF4F81E090E09183808364C07A
:100DE000FE01E35BFF4F608171818281938120E08E
:100DF0003FEF4FE757E40E94190318160CF043C069
:100E0000FE01EF5AFF4F608171818281938120E062
:100E100030E040E251E40E941F02DC01CB018E0170
:100E2000055B1F4FBC01CD010E944900DC01CB01D5
:100E3000F801918380831FC0FE01E75BFF4F88ECC0
:100E400090E091838083FE01E75BFF4F8081918179
:100E50000197F1F7FE01E75BFF4F91838083DE018D
:100E6000A55BBF4FFE01E55BFF4F8081918101973C
:100E700011969C938E93FE01E55BFF4F80819181DB
:100E80000097D1F627C08E01055B1F4FFE01E35B83
:100E9000FF4F60817181828193810E944900DC0152
:100EA000CB01F80191838083DE01A95BBF4FFE0176
:100EB000E55BFF4F808191818D939C93FE01E95BFF
:100EC000FF4F808191810197F1F7FE01E95BFF4FB0
:100ED0009183808384E790E00E947E0D82E20E94ED
:100EE000540D8DE790E00E947E0D82E20E94540D29
:100EF0008DE00E94540D8AE00E94540DFE01ED5BCE
:100F0000FF4F80E090E0AAE7B4E480839183A2835E
:100F1000B3838E01015C1F4FFE01ED5BFF4F6081CB
:100F200071818281938120E030E04AEF54E40E9495
:100F30001F02DC01CB01F80180839183A283B3837C
:100F4000FE01FF96608171818281938120E030E013
:100F500040E85FE30E94790388232CF481E090E06D
:100F60009EAF8DAF46C0FE01FF9660817181828188
:100F7000938120E03FEF4FE757E40E9419031816D2
:100F800064F5FE01ED5BFF4F608171818281938189
:100F900020E030E040E251E40E941F02DC01CB017E
:100FA000BC01CD010E944900DC01CB019EAF8DAF99
:100FB0000FC088EC90E09CAF8BAF8BAD9CAD0197E0
:100FC000F1F79CAF8BAF8DAD9EAD01979EAF8DAF0E
:100FD0008DAD9EAD009769F716C0FE01FF9660814A
:100FE0007181828193810E944900DC01CB019EAF17
:100FF0008DAF8DAD9EAD9AAF89AF89AD9AAD01979A
:10100000F1F79AAF89AF8AE890E00E947E0D8DE0FB
:101010000E94540D8AE00E94540D80E090E0AAE7FF
:10102000B4E48DAB9EABAFABB8AF6DA97EA98FA971
:1010300098AD20E030E04AEF54E40E941F02DC014A
:10104000CB0189AB9AABABABBCAB69A97AA98BA935
:101050009CA920E030E040E85FE30E947903882308
:101060002CF481E090E098AB8FA73FC069A97AA9E2
:101070008BA99CA920E03FEF4FE757E40E9419039A
:1010800018164CF56DA97EA98FA998AD20E030E027
:1010900040E251E40E941F02DC01CB01BC01CD0102
:1010A0000E944900DC01CB0198AB8FA70FC088ECF0
:1010B00090E09EA78DA78DA59EA50197F1F79EA70D
:1010C0008DA78FA598A9019798AB8FA78FA598A9F1
:1010D000009769F714C069A97AA98BA99CA90E94F5
:1010E0004900DC01CB0198AB8FA78FA598A99CA7DD
:1010F0008BA78BA59CA50197F1F79CA78BA78AE1ED
:101100000E94540D80E090E0AAE7B4E48FA398A772
:10111000A9A7BAA76FA178A589A59AA520E030E074
:101120004AEF54E40E941F02DC01CB018BA39CA375
:10113000ADA3BEA36BA17CA18DA19EA120E030E058
:1011400040E85FE30E94790388232CF481E090E07B
:101150009AA389A33FC06BA17CA18DA19EA120E091
:101160003FEF4FE757E40E94190318164CF56FA1A3
:1011700078A589A59AA520E030E040E251E40E94DC
:101180001F02DC01CB01BC01CD010E944900DC0142
:10119000CB019AA389A30FC088EC90E098A38F8F0E
:1011A0008F8D98A10197F1F798A38F8F89A19AA1AC
:1011B00001979AA389A389A19AA1009769F714C0FE
:1011C0006BA17CA18DA19EA10E944900DC01CB01F5
:1011D0009AA389A389A19AA19E8F8D8F8D8D9E8DB3
:1011E0000197F1F79E8F8D8F80E090E0AAE7B4E43D
:1011F000898F9A8FAB8FBC8F698D7A8D8B8D9C8DEB
:1012000020E030E04AEF54E40E941F02DC01CB01F1
:101210008D8B9E8BAF8BB88F6D897E898F89988DD2
:1012200020E030E040E85FE30E94790388232CF45B
:1012300081E090E09C8B8B8B3FC06D897E898F898C
:10124000988D20E03FEF4FE757E40E9419031816EE
:101250004CF5698D7A8D8B8D9C8D20E030E040E2DD
:1012600051E40E941F02DC01CB01BC01CD010E94B0
:101270004900DC01CB019C8B8B8B0FC088EC90E08C
:101280009A8B898B89899A890197F1F79A8B898B37
:101290008B899C8901979C8B8B8B8B899C89009770
:1012A00069F714C06D897E898F89988D0E944900E5
:1012B000DC01CB019C8B8B8B8B899C89988B8F87D6
:1012C0008F8598890197F1F7988B8F878CE990E04B
:1012D0000E947E0D8DE00E94540D8AE00E94540D04
:1012E00080E090E0AAE7B4E48B879C87AD87BE8757
:1012F0006B857C858D859E8520E030E04AEF54E447
:101300000E941F02DC01CB018F839887A987BA87CF
:101310006F81788589859A8520E030E040E85FE339
:101320000E94790388232CF481E090E09E838D83D2
:101330003FC06F81788589859A8520E03FEF4FE730
:1013400057E40E94190318164CF56B857C858D8532
:101350009E8520E030E040E251E40E941F02DC0163
:10136000CB01BC01CD010E944900DC01CB019E8371
:101370008D830FC088EC90E09C838B838B819C8154
:101380000197F1F79C838B838D819E8101979E83CA
:101390008D838D819E81009769F714C06F81788558
:1013A00089859A850E944900DC01CB019E838D834B
:1013B0008D819E819A83898389819A810197F1F732
:1013C0009A838983CE59DF4F0FB6F894DEBF0FBEE4
:1013D000CDBFCF91DF911F910F910895DF93CF93F0
:1013E000CDB7DEB7AA970FB6F894DEBF0FBECDBF5C
:1013F00080E090E0A0E2B2E48FA398A7A9A7BAA7E3
:101400006FA178A589A59AA520E030E04AEF54E4C1
:101410000E941F02DC01CB018BA39CA3ADA3BEA342
:101420006BA17CA18DA19EA120E030E040E85FE3AC
:101430000E94790388232CF481E090E09AA389A389
:101440003FC06BA17CA18DA19EA120E03FEF4FE7A3
:1014500057E40E94190318164CF56FA178A589A5C9
:101460009AA520E030E040E251E40E941F02DC0136
:10147000CB01BC01CD010E944900DC01CB019AA344
:1014800089A30FC088EC90E098A38F8F8F8D98A1CF
:101490000197F1F798A38F8F89A19AA101979AA339
:1014A00089A389A19AA1009769F714C06BA17CA1B7
:1014B0008DA19EA10E944900DC01CB019AA389A3C2
:1014C00089A19AA19E8F8D8F8D8D9E8D0197F1F7A9
:1014D0009E8F8D8F88E30E94600B80E090E0A0E4F7
:1014E000B0E4898F9A8FAB8FBC8F698D7A8D8B8D8D
:1014F0009C8D20E030E04AEF54E40E941F02DC01A2
:10150000CB018D8B9E8BAF8BB88F6D897E898F8938
:10151000988D20E030E040E85FE30E947903882363
:101520002CF481E090E09C8B8B8B3FC06D897E8991
:101530008F89988D20E03FEF4FE757E40E94190311
:1015400018164CF5698D7A8D8B8D9C8D20E030E0DE
:1015500040E251E40E941F02DC01CB01BC01CD013D
:101560000E944900DC01CB019C8B8B8B0FC088EC67
:1015700090E09A8B898B89899A890197F1F79A8BE8
:10158000898B8B899C8901979C8B8B8B8B899C8900
:10159000009769F714C06D897E898F89988D0E94A4
:1015A0004900DC01CB019C8B8B8B8B899C89988BB0
:1015B0008F878F8598890197F1F7988B8F878CE0BB
:1015C0000E94600B80E090E0A0E4B0E48B879C87F1
:1015D000AD87BE876B857C858D859E8520E030E05C
:1015E0004AEF54E40E941F02DC01CB018F839887ED
:1015F000A987BA876F81788589859A8520E030E050
:1016000040E85FE30E94790388232CF481E090E0B6
:101610009E838D833FC06F81788589859A8520E080
:101620003FEF4FE757E40E94190318164CF56B85FE
:101630007C858D859E8520E030E040E251E40E946B
:101640001F02DC01CB01BC01CD010E944900DC017D
:10165000CB019E838D830FC088EC90E09C838B83AD
:101660008B819C810197F1F79C838B838D819E8177
:1016700001979E838D838D819E81009769F714C0A9
:101680006F81788589859A850E944900DC01CB01AC
:101690009E838D838D819E819A83898389819A819E
:1016A0000197F1F79A83898381E00E94600BAA96E3
:1016B0000FB6F894DEBF0FBECDBFCF91DF91089576
:1016C000DF93CF93CDB7DEB72F970FB6F894DEBF79
:1016D0000FBECDBF8F87A5E3B0E0E5E3F0E08081EA
:1016E0008F7D8C93A5E3B0E0E5E3F0E080818F7B14
:1016F0008C93EBE3F0E08F858083A5E3B0E0E5E336
:10170000F0E0808180688C9380E090E0A0E0B0E41D
:101710008B879C87AD87BE876B857C858D859E85F5
:1017200020E030E04AEF54E40E941F02DC01CB01CC
:101730008F839887A987BA876F81788589859A85ED
:1017400020E030E040E85FE30E94790388232CF436
:1017500081E090E09E838D833FC06F81788589858D
:101760009A8520E03FEF4FE757E40E9419031816CF
:101770004CF56B857C858D859E8520E030E040E2D0
:1017800051E40E941F02DC01CB01BC01CD010E948B
:101790004900DC01CB019E838D830FC088EC90E073
:1017A0009C838B838B819C810197F1F79C838B8336
:1017B0008D819E8101979E838D838D819E8100976F
:1017C00069F714C06F81788589859A850E944900E0
:1017D000DC01CB019E838D838D819E819A838983D9
:1017E00089819A810197F1F79A838983A5E3B0E013
:1017F000E5E3F0E080818F778C932F960FB6F89415
:10180000DEBF0FBECDBFCF91DF910895DF93CF93A1
:10181000CDB7DEB72F970FB6F894DEBF0FBECDBFA2
:101820008F87A5E3B0E0E5E3F0E0808180628C93F0
:10183000A5E3B0E0E5E3F0E080818F7B8C93EBE300
:10184000F0E08F858083A5E3B0E0E5E3F0E0808100
:1018500080688C9380E090E0A0E0B0E48B879C8768
:10186000AD87BE876B857C858D859E8520E030E0C9
:101870004AEF54E40E941F02DC01CB018F8398875A
:10188000A987BA876F81788589859A8520E030E0BD
:1018900040E85FE30E94790388232CF481E090E024
:1018A0009E838D833FC06F81788589859A8520E0EE
:1018B0003FEF4FE757E40E94190318164CF56B856C
:1018C0007C858D859E8520E030E040E251E40E94D9
:1018D0001F02DC01CB01BC01CD010E944900DC01EB
:1018E000CB019E838D830FC088EC90E09C838B831B
:1018F0008B819C810197F1F79C838B838D819E81E5
:1019000001979E838D838D819E81009769F714C016
:101910006F81788589859A850E944900DC01CB0119
:101920009E838D838D819E819A83898389819A810B
:101930000197F1F79A838983A5E3B0E0E5E3F0E04E
:1019400080818F778C932F960FB6F894DEBF0FBEF1
:10195000CDBFCF91DF910895DF93CF93CDB7DEB7A1
:10196000E0E2F0E082E08083E1E2F0E01082E2E297
:10197000F0E08AEA8083E6E5F0E084E48083CF91BA
:10198000DF910895DF93CF93CDB7DEB7E6E5F0E0C2
:1019900084EA8083E6E5F0E080818823DCF7CF915C
:1019A000DF910895DF93CF93CDB7DEB7E6E5F0E0A2
:1019B00084E98083CF91DF910895DF93CF930F92D5
:1019C000CDB7DEB78983E3E2F0E089818083E6E585
:1019D000F0E084E88083E6E5F0E080818823DCF7AE
:1019E0000F90CF91DF910895DF93CF93CDB7DEB7FE
:1019F000A6E5B0E0E6E5F0E0808180688C93A6E59E
:101A0000B0E0E6E5F0E0808184608C93A6E5B0E08C
:101A1000E6E5F0E0808180648C93E6E5F0E080818B
:101A20008823DCF7E3E2F0E08081CF91DF91089535
:101A3000DF93CF93CDB7DEB7E6E5F0E084E88083AF
:101A4000E6E5F0E080818823DCF7E3E2F0E08081E6
:101A5000CF91DF910895DF93CF930F92CDB7DEB78B
:101A6000E1E2F0E08081887F898389810F90CF91C6
:101A7000DF910895DF93CF93CDB7DEB7EAE2F0E0D0
:101A800088E18083E0E4F0E086E88083EBE2F0E048
:101A900080EC8083E9E2F0E084E38083E0E4F0E03E
:101AA0001082CF91DF910895DF93CF930F92CDB73E
:101AB000DEB78983EBE2F0E08081882F90E08072CE
:101AC00090700097B9F3ECE2F0E0898180830F9089
:101AD000CF91DF910895DF93CF930F92CDB7DEB70B
:101AE000EBE2F0E080818823DCF7ECE2F0E080813B
:101AF000898389810F90CF91DF910895DF93CF93F0
:101B000000D000D000D0CDB7DEB79E838D838D810D
:101B10009E810E942E239C838B831A8219820FC080
:101B200029813A818D819E81FC01E20FF31F808122
:101B30000E94540D89819A8101969A838983298113
:101B40003A818B819C812817390754F326960FB66A
:101B5000F894DEBF0FBECDBFCF91DF910895DF9324
:101B6000CF93CDB7DEB7A5970FB6F894DEBF0FBE03
:101B7000CDBFAE014F5E5F4F5AA349A38EEA90E0FE
:101B80009CA38BA390E19DA3EBA1FCA100804BA1A2
:101B90005CA14F5F5F4F5CA34BA3E9A1FAA1008258
:101BA00049A15AA14F5F5F4F5AA349A35DA151506C
:101BB0005DA38DA1882341F7E7E3F0E08FE0808308
:101BC000E8E3F0E08FEF8083188ADFC0A8E3B0E09D
:101BD000E8E3F0E0808181608C93A8E3B0E0E8E383
:101BE000F0E0808182608C93A8E3B0E0E8E3F0E06D
:101BF000808184608C93A8E3B0E0E8E3F0E080812A
:101C000088608C93A8E3B0E0E8E3F0E08081482F9F
:101C10008889282F30E081E090E0022E02C0880FF2
:101C2000991F0A94E2F7809584238C931F86A6C09F
:101C3000E6E3F0E08081282F30E08F85882F90E068
:101C40000496F90102C0F595E7958A95E2F7CF0170
:101C500081709070009709F08EC080E090E0AAE754
:101C6000B3E48B879C87AD87BE876B857C858D852C
:101C70009E8520E030E04AEF54E40E941F02DC0120
:101C8000CB018F839887A987BA876F8178858985EB
:101C90009A8520E030E040E85FE30E9479038823E2
:101CA0002CF481E090E09E838D833FC06F81788526
:101CB00089859A8520E03FEF4FE757E40E9419039A
:101CC00018164CF56B857C858D859E8520E030E06F
:101CD00040E251E40E941F02DC01CB01BC01CD01B6
:101CE0000E944900DC01CB019E838D830FC088ECEC
:101CF00090E09C838B838B819C810197F1F79C837F
:101D00008B838D819E8101979E838D838D819E81A2
:101D1000009769F714C06F81788589859A850E943C
:101D20004900DC01CB019E838D838D819E819A8346
:101D3000898389819A810197F1F79A8389838889B8
:101D4000282F30E08F85482F50E0220F331F220FBD
:101D5000331FCE010196820F931F840F951FFC0144
:101D600070968081A5960FB6F894DEBF0FBECDBFEA
:101D7000CF91DF9108958F858F5F8F878F85843016
:101D800008F456CF88898F5F888B8889843008F45F
:101D90001DCF1ACF0F931F93DF93CF93CDB7DEB72D
:101DA000C559D0400FB6F894DEBF0FBECDBFE1E3FA
:101DB000F0E08EEF8083EAE3F0E08FEF8083E4E3EE
:101DC000F0E08FEF8083FE01E357FF4F10820E9407
:101DD000EE090E94A3050E9482150E943A0D81E03F
:101DE0000E94600B80E80E94600B80E50E94060C58
:101DF00081E60E94060C83E70E94060C83E70E949E
:101E0000060C87E70E94060C8FE60E94060C82E70C
:101E10000E94060C84E60E94060C8AE30E94060CCF
:101E2000FE01E757FF4F80E090E0A8ECB2E480832A
:101E30009183A283B3838E010B571F4FFE01E75797
:101E4000FF4F608171818281938120E030E04AEF11
:101E500054E40E941F02DC01CB01F80180839183CE
:101E6000A283B383FE01EB57FF4F608171818281B2
:101E7000938120E030E040E85FE30E94790388230B
:101E800044F4FE01ED57FF4F81E090E091838083A1
:101E900064C0FE01EB57FF4F6081718182819381A5
:101EA00020E03FEF4FE757E40E94190318160CF0AB
:101EB00043C0FE01E757FF4F6081718182819381AA
:101EC00020E030E040E251E40E941F02DC01CB013F
:101ED0008E010D571F4FBC01CD010E944900DC014E
:101EE000CB01F801918380831FC0FE01EF57FF4FA4
:101EF00088EC90E091838083FE01EF57FF4F808153
:101F000091810197F1F7FE01EF57FF4F9183808395
:101F1000DE01AD57BF4FFE01ED57FF4F808191812C
:101F2000019711969C938E93FE01ED57FF4F808190
:101F300091810097D1F627C08E010D571F4FFE01EA
:101F4000EB57FF4F60817181828193810E9449002C
:101F5000DC01CB01F80191838083DE01A158BF4FE2
:101F6000FE01ED57FF4F808191818D939C93FE017F
:101F7000E158FF4F808191810197F1F7FE01E1580F
:101F8000FF4F918380830E94AF0D805DFE01E25779
:101F9000FF4F8083FE01E558FF4F80E090E0A8EC02
:101FA000B2E480839183A283B3838E0109581F4FCB
:101FB000FE01E558FF4F608171818281938120E0AD
:101FC00030E04AEF54E40E941F02DC01CB01F8012B
:101FD00080839183A283B383FE01E958FF4F608120
:101FE00071818281938120E030E040E85FE30E94CC
:101FF0007903882344F4FE01EB58FF4F81E090E021
:102000009183808364C0FE01E958FF4F6081718134
:102010008281938120E03FEF4FE757E40E9419034C
:1020200018160CF043C0FE01E558FF4F6081718126
:102030008281938120E030E040E251E40E941F025F
:10204000DC01CB018E010B581F4FBC01CD010E945A
:102050004900DC01CB01F801918380831FC0FE01A0
:10206000ED58FF4F88EC90E091838083FE01ED589E
:10207000FF4F808191810197F1F7FE01ED58FF4FED
:1020800091838083DE01AB58BF4FFE01EB58FF4FB9
:1020900080819181019711969C938E93FE01EB585C
:1020A000FF4F808191810097D1F627C08E010B5898
:1020B0001F4FFE01E958FF4F60817181828193813A
:1020C0000E944900DC01CB01F80191838083DE018D
:1020D000AF58BF4FFE01EB58FF4F808191818D9328
:1020E0009C93FE01EF58FF4F808191810197F1F79A
:1020F000FE01EF58FF4F91838083FE01E257FF4FAF
:1021000080810E94060CFE01E359FF4F80E090E0C1
:10211000A8ECB2E480839183A283B3838E01075934
:102120001F4FFE01E359FF4F6081718182819381CE
:1021300020E030E04AEF54E40E941F02DC01CB01B2
:10214000F80180839183A283B383FE01E759FF4F97
:10215000608171818281938120E030E040E85FE31B
:102160000E947903882344F4FE01E959FF4F81E07E
:1021700090E09183808364C0FE01E759FF4F608146
:1021800071818281938120E03FEF4FE757E40E9405
:10219000190318160CF043C0FE01E359FF4F60818C
:1021A00071818281938120E030E040E251E40E941D
:1021B0001F02DC01CB018E0109591F4FBC01CD016B
:1021C0000E944900DC01CB01F801918380831FC08C
:1021D000FE01EB59FF4F88EC90E091838083FE0174
:1021E000EB59FF4F808191810197F1F7FE01EB5987
:1021F000FF4F91838083DE01A959BF4FFE01E9594A
:10220000FF4F80819181019711969C938E93FE01DF
:10221000E959FF4F808191810097D1F627C08E0147
:1022200009591F4FFE01E759FF4F6081718182817B
:1022300093810E944900DC01CB01F80191838083E6
:10224000DE01AD59BF4FFE01E959FF4F80819181F9
:102250008D939C93FE01ED59FF4F808191810197F1
:10226000F1F7FE01ED59FF4F918380830E94AF0D7E
:10227000805DFE01E257FF4F8183FE01E15AFF4F6F
:1022800080E090E0A8ECB2E480839183A283B383E2
:102290008E01055A1F4FFE01E15AFF4F6081718187
:1022A0008281938120E030E04AEF54E40E941F02D3
:1022B000DC01CB01F80180839183A283B383FE010B
:1022C000E55AFF4F608171818281938120E030E087
:1022D00040E85FE30E947903882344F4FE01E75A53
:1022E000FF4F81E090E09183808364C0FE01E55A56
:1022F000FF4F608171818281938120E03FEF4FE742
:1023000057E40E94190318160CF043C0FE01E15A6D
:10231000FF4F608171818281938120E030E040E253
:1023200051E40E941F02DC01CB018E01075A1F4FAE
:10233000BC01CD010E944900DC01CB01F801918371
:1023400080831FC0FE01E95AFF4F88EC90E0918323
:102350008083FE01E95AFF4F808191810197F1F757
:10236000FE01E95AFF4F91838083DE01A75ABF4FD8
:10237000FE01E75AFF4F80819181019711969C934E
:102380008E93FE01E75AFF4F808191810097D1F62D
:1023900027C08E01075A1F4FFE01E55AFF4F60818B
:1023A0007181828193810E944900DC01CB01F80197
:1023B00091838083DE01AB5ABF4FFE01E75AFF4F86
:1023C000808191818D939C93FE01EB5AFF4F808118
:1023D00091810197F1F7FE01EB5AFF4F91838083C2
:1023E000FE01E257FF4F81810E94060CFE01EF5A69
:1023F000FF4F80E090E0A8ECB2E480839183A28359
:10240000B3838E01035B1F4FFE01EF5AFF4F6081C4
:1024100071818281938120E030E04AEF54E40E9490
:102420001F02DC01CB01F80180839183A283B38377
:10243000FE01E35BFF4F608171818281938120E027
:1024400030E040E85FE30E947903882344F4FE0112
:10245000E55BFF4F81E090E09183808364C0FE01E3
:10246000E35BFF4F608171818281938120E03FEFC8
:102470004FE757E40E94190318160CF043C0FE0101
:10248000EF5AFF4F608171818281938120E030E0BB
:1024900040E251E40E941F02DC01CB018E01055B8A
:1024A0001F4FBC01CD010E944900DC01CB01F801A6
:1024B000918380831FC0FE01E75BFF4F88EC90E0B3
:1024C00091838083FE01E75BFF4F808191810197BB
:1024D000F1F7FE01E75BFF4F91838083DE01A55B8F
:1024E000BF4FFE01E55BFF4F8081918101971196FF
:1024F0009C938E93FE01E55BFF4F80819181009755
:10250000D1F627C08E01055B1F4FFE01E35BFF4F35
:1025100060817181828193810E944900DC01CB013D
:10252000F80191838083DE01A95BBF4FFE01E55B6B
:10253000FF4F808191818D939C93FE01E95BFF4F5A
:10254000808191810197F1F7FE01E95BFF4F918353
:1025500080830E94AF0D805DFE01E257FF4F8283B2
:10256000FE01ED5BFF4F80E090E0A8ECB2E48083D9
:102570009183A283B3838E01015C1F4FFE01ED5B4B
:10258000FF4F608171818281938120E030E04AEFCA
:1025900054E40E941F02DC01CB01F8018083918387
:1025A000A283B383FE01FF96608171818281938152
:1025B00020E030E040E85FE30E94790388232CF4B8
:1025C00081E090E09EAF8DAF46C0FE01FF96608136
:1025D00071818281938120E03FEF4FE757E40E94B1
:1025E0001903181664F5FE01ED5BFF4F60817181E0
:1025F0008281938120E030E040E251E40E941F029A
:10260000DC01CB01BC01CD010E944900DC01CB0102
:102610009EAF8DAF0FC088EC90E09CAF8BAF8BADC1
:102620009CAD0197F1F79CAF8BAF8DAD9EAD01973F
:102630009EAF8DAF8DAD9EAD009769F716C0FE01C0
:10264000FF9660817181828193810E944900DC0143
:10265000CB019EAF8DAF8DAD9EAD9AAF89AF89ADE9
:102660009AAD0197F1F79AAF89AFFE01E257FF4F9C
:1026700082810E94060C80E090E0A8ECB2E48DAB71
:102680009EABAFABB8AF6DA97EA98FA998AD20E086
:1026900030E04AEF54E40E941F02DC01CB0189AB19
:1026A0009AABABABBCAB69A97AA98BA99CA920E07A
:1026B00030E040E85FE30E94790388232CF481E056
:1026C00090E098AB8FA73FC069A97AA98BA99CA974
:1026D00020E03FEF4FE757E40E94190318164CF52E
:1026E0006DA97EA98FA998AD20E030E040E251E4C9
:1026F0000E941F02DC01CB01BC01CD010E944900F8
:10270000DC01CB0198AB8FA70FC088EC90E09EA7AF
:102710008DA78DA59EA50197F1F79EA78DA78FA5E3
:1027200098A9019798AB8FA78FA598A9009769F7EB
:1027300014C069A97AA98BA99CA90E944900DC014F
:10274000CB0198AB8FA78FA598A99CA78BA78BA52A
:102750009CA50197F1F79CA78BA70E94AF0D805D08
:10276000FE01E257FF4F838380E090E0A8ECB2E4E3
:102770008FA398A7A9A7BAA76FA178A589A59AA59D
:1027800020E030E04AEF54E40E941F02DC01CB015C
:102790008BA39CA3ADA3BEA36BA17CA18DA19EA185
:1027A00020E030E040E85FE30E94790388232CF4C6
:1027B00081E090E09AA389A33FC06BA17CA18DA189
:1027C0009EA120E03FEF4FE757E40E94190318163F
:1027D0004CF56FA178A589A59AA520E030E040E2EC
:1027E00051E40E941F02DC01CB01BC01CD010E941B
:1027F0004900DC01CB019AA389A30FC088EC90E0CB
:1028000098A38F8F8F8D98A10197F1F798A38F8F41
:1028100089A19AA101979AA389A389A19AA1009756
:1028200069F714C06BA17CA18DA19EA10E944900F3
:10283000DC01CB019AA389A389A19AA19E8F8D8FD8
:102840008D8D9E8D0197F1F79E8F8D8FFE01E25742
:10285000FF4F83810E94060C80E090E0A8ECB2E478
:10286000898F9A8FAB8FBC8F698D7A8D8B8D9C8D64
:1028700020E030E04AEF54E40E941F02DC01CB016B
:102880008D8B9E8BAF8BB88F6D897E898F89988D4C
:1028900020E030E040E85FE30E94790388232CF4D5
:1028A00081E090E09C8B8B8B3FC06D897E898F8906
:1028B000988D20E03FEF4FE757E40E941903181668
:1028C0004CF5698D7A8D8B8D9C8D20E030E040E257
:1028D00051E40E941F02DC01CB01BC01CD010E942A
:1028E0004900DC01CB019C8B8B8B0FC088EC90E006
:1028F0009A8B898B89899A890197F1F79A8B898BB1
:102900008B899C8901979C8B8B8B8B899C890097E9
:1029100069F714C06D897E898F89988D0E9449005E
:10292000DC01CB019C8B8B8B8B899C89988B8F874F
:102930008F8598890197F1F7988B8F878FE00E9498
:10294000C505FE01EE56FF4F80838FE10E94C5054D
:10295000FE01EE56FF4F81838FE20E94C505FE0106
:10296000EE56FF4F82838FE30E94C505FE01EE56AF
:10297000FF4F8383FE01E257FF4F9081FE01EE5629
:10298000FF4F8081981709F0A8C0FE01E257FF4F62
:102990009181FE01EE56FF4F8181981709F09DC08D
:1029A000FE01E257FF4F9281FE01EE56FF4F8281FA
:1029B000981709F092C0FE01E257FF4F9381FE0184
:1029C000EE56FF4F8381981709F087C0FE01E35749
:1029D000FF4F1082A2E3B0E0E2E3F0E08081806884
:1029E0008C9380E090E0AAEFB3E48B879C87AD875F
:1029F000BE876B857C858D859E8520E030E04AEF23
:102A000054E40E941F02DC01CB018F839887A987C1
:102A1000BA876F81788589859A8520E030E040E823
:102A20005FE30E94790388232CF481E090E09E8389
:102A30008D833FC06F81788589859A8520E03FEF3F
:102A40004FE757E40E94190318164CF56B857C85F7
:102A50008D859E8520E030E040E251E40E941F0217
:102A6000DC01CB01BC01CD010E944900DC01CB019E
:102A70009E838D830FC088EC90E09C838B838B8139
:102A80009C810197F1F79C838B838D819E810197B7
:102A90009E838D838D819E81009769F714C06F811D
:102AA000788589859A850E944900DC01CB019E8347
:102AB0008D838D819E819A83898389819A810197F3
:102AC000F1F79A838983A2E3B0E0E2E3F0E080814A
:102AD0008F778C930E94AE2082C9DE01A357BF4F2F
:102AE000FE01E357FF4F80818F5F8C93FE01E35718
:102AF000FF4F8081833018F40E945D1F70C90E94CF
:102B00009C216DC9DF93CF93CDB7DEB7E8970FB6A1
:102B1000F894DEBF0FBECDBF8FE061E30E94AC052D
:102B200080E090E0A8E4B2E48DAB9EABAFABB8AF71
:102B30006DA97EA98FA998AD20E030E04AEF54E45A
:102B40000E941F02DC01CB0189AB9AABABABBCABE3
:102B500069A97AA98BA99CA920E030E040E85FE34D
:102B60000E94790388232CF481E090E098AB8FA732
:102B70003FC069A97AA98BA99CA920E03FEF4FE744
:102B800057E40E94190318164CF56DA97EA98FA968
:102B900098AD20E030E040E251E40E941F02DC01E9
:102BA000CB01BC01CD010E944900DC01CB0198ABF7
:102BB0008FA70FC088EC90E09EA78DA78DA59EA53E
:102BC0000197F1F79EA78DA78FA598A9019798ABBC
:102BD0008FA78FA598A9009769F714C069A97AA94A
:102BE0008BA99CA90E944900DC01CB0198AB8FA75F
:102BF0008FA598A99CA78BA78BA59CA50197F1F7FA
:102C00009CA78BA78FE162E30E94AC0580E090E077
:102C1000A8E4B2E48FA398A7A9A7BAA76FA178A543
:102C200089A59AA520E030E04AEF54E40E941F02F3
:102C3000DC01CB018BA39CA3ADA3BEA36BA17CA1A4
:102C40008DA19EA120E030E040E85FE30E9479037F
:102C500088232CF481E090E09AA389A33FC06BA164
:102C60007CA18DA19EA120E03FEF4FE757E40E9499
:102C7000190318164CF56FA178A589A59AA520E02F
:102C800030E040E251E40E941F02DC01CB01BC01B4
:102C9000CD010E944900DC01CB019AA389A30FC09A
:102CA00088EC90E098A38F8F8F8D98A10197F1F712
:102CB00098A38F8F89A19AA101979AA389A389A12B
:102CC0009AA1009769F714C06BA17CA18DA19EA168
:102CD0000E944900DC01CB019AA389A389A19AA192
:102CE0009E8F8D8F8D8D9E8D0197F1F79E8F8D8F8D
:102CF0008FE263E30E94AC0580E090E0A8E4B2E4D8
:102D0000898F9A8FAB8FBC8F698D7A8D8B8D9C8DBF
:102D100020E030E04AEF54E40E941F02DC01CB01C6
:102D20008D8B9E8BAF8BB88F6D897E898F89988DA7
:102D300020E030E040E85FE30E94790388232CF430
:102D400081E090E09C8B8B8B3FC06D897E898F8961
:102D5000988D20E03FEF4FE757E40E9419031816C3
:102D60004CF5698D7A8D8B8D9C8D20E030E040E2B2
:102D700051E40E941F02DC01CB01BC01CD010E9485
:102D80004900DC01CB019C8B8B8B0FC088EC90E061
:102D90009A8B898B89899A890197F1F79A8B898B0C
:102DA0008B899C8901979C8B8B8B8B899C89009745
:102DB00069F714C06D897E898F89988D0E944900BA
:102DC000DC01CB019C8B8B8B8B899C89988B8F87AB
:102DD0008F8598890197F1F7988B8F878FE364E34C
:102DE0000E94AC0580E090E0A8E4B2E48B879C8769
:102DF000AD87BE876B857C858D859E8520E030E024
:102E00004AEF54E40E941F02DC01CB018F839887B4
:102E1000A987BA876F81788589859A8520E030E017
:102E200040E85FE30E94790388232CF481E090E07E
:102E30009E838D833FC06F81788589859A8520E048
:102E40003FEF4FE757E40E94190318164CF56B85C6
:102E50007C858D859E8520E030E040E251E40E9433
:102E60001F02DC01CB01BC01CD010E944900DC0145
:102E7000CB019E838D830FC088EC90E09C838B8375
:102E80008B819C810197F1F79C838B838D819E813F
:102E900001979E838D838D819E81009769F714C071
:102EA0006F81788589859A850E944900DC01CB0174
:102EB0009E838D838D819E819A83898389819A8166
:102EC0000197F1F79A838983E8960FB6F894DEBFED
:102ED0000FBECDBFCF91DF9108950F931F93DF9366
:102EE000CF93CDB7DEB7CC5AD0400FB6F894DEBF43
:102EF0000FBECDBF81E00E94600B80E80E94600B96
:102F000080E20E94060C80E20E94060C80E20E9491
:102F1000060C85E40E94060C8EE60E94060C84E7EF
:102F20000E94060C85E60E94060C82E70E94060CB1
:102F300080E20E94060C8EE60E94060C85E60E9446
:102F4000060C87E70E94060C80E20E94060C80ECCB
:102F50000E94600B80E20E94060C80E20E94060C38
:102F600080E70E94060C81E60E94060C83E70E941F
:102F7000060C83E70E94060C87E70E94060C8FE68A
:102F80000E94060C82E70E94060C84E60E94060C52
:102F90008AE30E94060C0E94AF0D805DFE01E7559A
:102FA000FF4F8083FE01EB55FF4F80E090E0A8ECDF
:102FB000B2E480839183A283B3838E010F551F4FA8
:102FC000FE01EB55FF4F608171818281938120E08A
:102FD00030E04AEF54E40E941F02DC01CB01F8010B
:102FE00080839183A283B383FE01EF55FF4F6081FD
:102FF00071818281938120E030E040E85FE30E94AC
:103000007903882344F4FE01E156FF4F81E090E00C
:103010009183808364C0FE01EF55FF4F6081718111
:103020008281938120E03FEF4FE757E40E9419032C
:1030300018160CF043C0FE01EB55FF4F6081718103
:103040008281938120E030E040E251E40E941F023F
:10305000DC01CB018E0101561F4FBC01CD010E9446
:103060004900DC01CB01F801918380831FC0FE0180
:10307000E356FF4F88EC90E091838083FE01E35696
:10308000FF4F808191810197F1F7FE01E356FF4FD9
:1030900091838083DE01A156BF4FFE01E156FF4FB1
:1030A00080819181019711969C938E93FE01E15648
:1030B000FF4F808191810097D1F627C08E01015684
:1030C0001F4FFE01EF55FF4F608171818281938117
:1030D0000E944900DC01CB01F80191838083DE016D
:1030E000A556BF4FFE01E156FF4F808191818D9320
:1030F0009C93FE01E556FF4F808191810197F1F786
:10310000FE01E556FF4F91838083FE01E755FF4F97
:1031100090818FE0692F0E94AC05FE01E956FF4FB8
:1031200080E090E0A8ECB2E480839183A283B38333
:103130008E010D561F4FFE01E956FF4F60817181D0
:103140008281938120E030E04AEF54E40E941F0224
:10315000DC01CB01F80180839183A283B383FE015C
:10316000ED56FF4F608171818281938120E030E0D4
:1031700040E85FE30E947903882344F4FE01EF56A0
:10318000FF4F81E090E09183808364C0FE01ED56A3
:10319000FF4F608171818281938120E03FEF4FE793
:1031A00057E40E94190318160CF043C0FE01E956BB
:1031B000FF4F608171818281938120E030E040E2A5
:1031C00051E40E941F02DC01CB018E010F561F4FFC
:1031D000BC01CD010E944900DC01CB01F8019183C3
:1031E00080831FC0FE01E157FF4F88EC90E0918380
:1031F0008083FE01E157FF4F808191810197F1F7B4
:10320000FE01E157FF4F91838083DE01AF56BF4F30
:10321000FE01EF56FF4F80819181019711969C939B
:103220008E93FE01EF56FF4F808191810097D1F67A
:1032300027C08E010F561F4FFE01ED56FF4F6081D4
:103240007181828193810E944900DC01CB01F801E8
:1032500091838083DE01A357BF4FFE01EF56FF4FDE
:10326000808191818D939C93FE01E357FF4F808174
:1032700091810197F1F7FE01E357FF4F918380831E
:10328000FE01E755FF4F80810E94060CFE01E757C3
:10329000FF4F80E090E0A8ECB2E480839183A283AA
:1032A000B3838E010B571F4FFE01E757FF4F60811D
:1032B00071818281938120E030E04AEF54E40E94E2
:1032C0001F02DC01CB01F80180839183A283B383C9
:1032D000FE01EB57FF4F608171818281938120E075
:1032E00030E040E85FE30E947903882344F4FE0164
:1032F000ED57FF4F81E090E09183808364C0FE0131
:10330000EB57FF4F608171818281938120E03FEF15
:103310004FE757E40E94190318160CF043C0FE0152
:10332000E757FF4F608171818281938120E030E017
:1033300040E251E40E941F02DC01CB018E010D57D7
:103340001F4FBC01CD010E944900DC01CB01F801F7
:10335000918380831FC0FE01EF57FF4F88EC90E000
:1033600091838083FE01EF57FF4F80819181019708
:10337000F1F7FE01EF57FF4F91838083DE01AD57D8
:10338000BF4FFE01ED57FF4F80819181019711964C
:103390009C938E93FE01ED57FF4F808191810097A2
:1033A000D1F627C08E010D571F4FFE01EB57FF4F7F
:1033B00060817181828193810E944900DC01CB018F
:1033C000F80191838083DE01A158BF4FFE01ED57C4
:1033D000FF4F808191818D939C93FE01E158FF4FB7
:1033E000808191810197F1F7FE01E158FF4F9183B0
:1033F00080830E94AF0D805DFE01E755FF4F818302
:10340000FE01E558FF4F80E090E0A8ECB2E4808335
:103410009183A283B3838E0109581F4FFE01E558A3
:10342000FF4F608171818281938120E030E04AEF1B
:1034300054E40E941F02DC01CB01F80180839183D8
:10344000A283B383FE01E958FF4F608171818281BD
:10345000938120E030E040E85FE30E947903882315
:1034600044F4FE01EB58FF4F81E090E091838083AC
:1034700064C0FE01E958FF4F6081718182819381B0
:1034800020E03FEF4FE757E40E94190318160CF0B5
:1034900043C0FE01E558FF4F6081718182819381B5
:1034A00020E030E040E251E40E941F02DC01CB0149
:1034B0008E010B581F4FBC01CD010E944900DC0159
:1034C000CB01F801918380831FC0FE01ED58FF4FAF
:1034D00088EC90E091838083FE01ED58FF4F80815E
:1034E00091810197F1F7FE01ED58FF4F91838083A1
:1034F000DE01AB58BF4FFE01EB58FF4F8081918139
:10350000019711969C938E93FE01EB58FF4F80819B
:1035100091810097D1F627C08E010B581F4FFE01F5
:10352000E958FF4F60817181828193810E94490037
:10353000DC01CB01F80191838083DE01AF58BF4FDE
:10354000FE01EB58FF4F808191818D939C93FE018A
:10355000EF58FF4F808191810197F1F7FE01EF58FD
:10356000FF4F91838083FE01E755FF4F91818FE1EB
:10357000692F0E94AC05FE01E359FF4F80E090E007
:10358000A8ECB2E480839183A283B3838E010759B0
:103590001F4FFE01E359FF4F60817181828193814A
:1035A00020E030E04AEF54E40E941F02DC01CB012E
:1035B000F80180839183A283B383FE01E759FF4F13
:1035C000608171818281938120E030E040E85FE397
:1035D0000E947903882344F4FE01E959FF4F81E0FA
:1035E00090E09183808364C0FE01E759FF4F6081C2
:1035F00071818281938120E03FEF4FE757E40E9481
:10360000190318160CF043C0FE01E359FF4F608107
:1036100071818281938120E030E040E251E40E9498
:103620001F02DC01CB018E0109591F4FBC01CD01E6
:103630000E944900DC01CB01F801918380831FC007
:10364000FE01EB59FF4F88EC90E091838083FE01EF
:10365000EB59FF4F808191810197F1F7FE01EB5902
:10366000FF4F91838083DE01A959BF4FFE01E959C5
:10367000FF4F80819181019711969C938E93FE015B
:10368000E959FF4F808191810097D1F627C08E01C3
:1036900009591F4FFE01E759FF4F608171818281F7
:1036A00093810E944900DC01CB01F8019183808362
:1036B000DE01AD59BF4FFE01E959FF4F8081918175
:1036C0008D939C93FE01ED59FF4F8081918101976D
:1036D000F1F7FE01ED59FF4F91838083FE01E7551D
:1036E000FF4F81810E94060CFE01E15AFF4F80E0EE
:1036F00090E0A8ECB2E480839183A283B3838E012F
:10370000055A1F4FFE01E15AFF4F6081718182818E
:10371000938120E030E04AEF54E40E941F02DC0174
:10372000CB01F80180839183A283B383FE01E55A24
:10373000FF4F608171818281938120E030E040E819
:103740005FE30E947903882344F4FE01E75AFF4FA8
:1037500081E090E09183808364C0FE01E55AFF4FD1
:10376000608171818281938120E03FEF4FE757E4D0
:103770000E94190318160CF043C0FE01E15AFF4FD6
:10378000608171818281938120E030E040E251E4E8
:103790000E941F02DC01CB018E01075A1F4FBC01A2
:1037A000CD010E944900DC01CB01F80191838083A7
:1037B0001FC0FE01E95AFF4F88EC90E0918380839F
:1037C000FE01E95AFF4F808191810197F1F7FE01D7
:1037D000E95AFF4F91838083DE01A75ABF4FFE0154
:1037E000E75AFF4F80819181019711969C938E93A8
:1037F000FE01E75AFF4F808191810097D1F627C0E3
:103800008E01075A1F4FFE01E55AFF4F60817181FB
:10381000828193810E944900DC01CB01F8019183F0
:103820008083DE01AB5ABF4FFE01E75AFF4F808114
:1038300091818D939C93FE01EB5AFF4F8081918182
:103840000197F1F7FE01EB5AFF4F918380830E94AD
:10385000AF0D805DFE01E755FF4F8283FE01EF5AF9
:10386000FF4F80E090E0A8ECB2E480839183A283D4
:10387000B3838E01035B1F4FFE01EF5AFF4F608140
:1038800071818281938120E030E04AEF54E40E940C
:103890001F02DC01CB01F80180839183A283B383F3
:1038A000FE01E35BFF4F608171818281938120E0A3
:1038B00030E040E85FE30E947903882344F4FE018E
:1038C000E55BFF4F81E090E09183808364C0FE015F
:1038D000E35BFF4F608171818281938120E03FEF44
:1038E0004FE757E40E94190318160CF043C0FE017D
:1038F000EF5AFF4F608171818281938120E030E037
:1039000040E251E40E941F02DC01CB018E01055B05
:103910001F4FBC01CD010E944900DC01CB01F80121
:10392000918380831FC0FE01E75BFF4F88EC90E02E
:1039300091838083FE01E75BFF4F80819181019736
:10394000F1F7FE01E75BFF4F91838083DE01A55B0A
:10395000BF4FFE01E55BFF4F80819181019711967A
:103960009C938E93FE01E55BFF4F808191810097D0
:10397000D1F627C08E01055B1F4FFE01E35BFF4FB1
:1039800060817181828193810E944900DC01CB01B9
:10399000F80191838083DE01A95BBF4FFE01E55BE7
:1039A000FF4F808191818D939C93FE01E95BFF4FD6
:1039B000808191810197F1F7FE01E95BFF4F9183CF
:1039C0008083FE01E755FF4F92818FE2692F0E94AD
:1039D000AC05FE01ED5BFF4F80E090E0A8ECB2E4A7
:1039E00080839183A283B3838E01015C1F4FFE010C
:1039F000ED5BFF4F608171818281938120E030E037
:103A00004AEF54E40E941F02DC01CB01F8018083DD
:103A10009183A283B383FE01FF96608171818281CD
:103A2000938120E030E040E85FE30E94790388233F
:103A30002CF481E090E09EAF8DAF46C0FE01FF9672
:103A4000608171818281938120E03FEF4FE757E4ED
:103A50000E941903181664F5FE01ED5BFF4F6081AB
:103A600071818281938120E030E040E251E40E9444
:103A70001F02DC01CB01BC01CD010E944900DC0129
:103A8000CB019EAF8DAF0FC088EC90E09CAF8BAFA9
:103A90008BAD9CAD0197F1F79CAF8BAF8DAD9EAD1B
:103AA00001979EAF8DAF8DAD9EAD009769F716C0A3
:103AB000FE01FF9660817181828193810E9449009D
:103AC000DC01CB019EAF8DAF8DAD9EAD9AAF89AFBE
:103AD00089AD9AAD0197F1F79AAF89AFFE01E7552D
:103AE000FF4F82810E94060C80E090E0A8ECB2E4D7
:103AF0008DAB9EABAFABB8AF6DA97EA98FA998ADCA
:103B000020E030E04AEF54E40E941F02DC01CB01C8
:103B100089AB9AABABABBCAB69A97AA98BA99CA9C1
:103B200020E030E040E85FE30E94790388232CF432
:103B300081E090E098AB8FA73FC069A97AA98BA9D3
:103B40009CA920E03FEF4FE757E40E9419031816A5
:103B50004CF56DA97EA98FA998AD20E030E040E238
:103B600051E40E941F02DC01CB01BC01CD010E9487
:103B70004900DC01CB0198AB8FA70FC088EC90E027
:103B80009EA78DA78DA59EA50197F1F79EA78DA74E
:103B90008FA598A9019798AB8FA78FA598A9009793
:103BA00069F714C069A97AA98BA99CA90E94490048
:103BB000DC01CB0198AB8FA78FA598A99CA78BA7F9
:103BC0008BA59CA50197F1F79CA78BA70E94AF0D31
:103BD000805DFE01E755FF4F838380E090E0A8EC15
:103BE000B2E48FA398A7A9A7BAA76FA178A589A5C2
:103BF0009AA520E030E04AEF54E40E941F02DC0165
:103C0000CB018BA39CA3ADA3BEA36BA17CA18DA173
:103C10009EA120E030E040E85FE30E947903882322
:103C20002CF481E090E09AA389A33FC06BA17CA112
:103C30008DA19EA120E03FEF4FE757E40E941903BA
:103C400018164CF56FA178A589A59AA520E030E05B
:103C500040E251E40E941F02DC01CB01BC01CD0116
:103C60000E944900DC01CB019AA389A30FC088EC14
:103C700090E098A38F8F8F8D98A10197F1F798A36B
:103C80008F8F89A19AA101979AA389A389A19AA14B
:103C9000009769F714C06BA17CA18DA19EA10E9421
:103CA0004900DC01CB019AA389A389A19AA19E8F27
:103CB0008D8F8D8D9E8D0197F1F79E8F8D8FFE01DB
:103CC000E755FF4F93818FE3692F0E94AC0580E099
:103CD00090E0A8ECB2E4898F9A8FAB8FBC8F698D8E
:103CE0007A8D8B8D9C8D20E030E04AEF54E40E9469
:103CF0001F02DC01CB018D8B9E8BAF8BB88F6D8942
:103D00007E898F89988D20E030E040E85FE30E9453
:103D1000790388232CF481E090E09C8B8B8B3FC04F
:103D20006D897E898F89988D20E03FEF4FE757E4BA
:103D30000E94190318164CF5698D7A8D8B8D9C8D18
:103D400020E030E040E251E40E941F02DC01CB01A0
:103D5000BC01CD010E944900DC01CB019C8B8B8B07
:103D60000FC088EC90E09A8B898B89899A8901979A
:103D7000F1F79A8B898B8B899C8901979C8B8B8B14
:103D80008B899C89009769F714C06D897E898F891A
:103D9000988D0E944900DC01CB019C8B8B8B8B8919
:103DA0009C89988B8F878F8598890197F1F7988BDD
:103DB0008F87FE01E755FF4F83810E94060C80E04C
:103DC00090E0AAE7B3E48B879C87AD87BE876B85BD
:103DD0007C858D859E8520E030E04AEF54E40E948A
:103DE0001F02DC01CB018F839887A987BA876F8177
:103DF000788589859A8520E030E040E85FE30E947D
:103E0000790388232CF481E090E09E838D833FC06A
:103E10006F81788589859A8520E03FEF4FE757E4E9
:103E20000E94190318164CF56B857C858D859E853F
:103E300020E030E040E251E40E941F02DC01CB01AF
:103E4000BC01CD010E944900DC01CB019E838D8322
:103E50000FC088EC90E09C838B838B819C810197C1
:103E6000F1F79C838B838D819E8101979E838D8347
:103E70008D819E81009769F714C06F81788589854F
:103E80009A850E944900DC01CB019E838D838D8140
:103E90009E819A83898389819A810197F1F79A8318
:103EA0008983C455DF4F0FB6F894DEBF0FBECDBF78
:103EB000CF91DF911F910F910895DF93CF93CDB7ED
:103EC000DEB76C970FB6F894DEBF0FBECDBF81E0B2
:103ED0000E94600B80E80E94600B80E20E94060C4A
:103EE00080E20E94060C80E20E94060C80E20E94A2
:103EF000060C80E20E94060C80E20E94060C87E518
:103F00000E94060C82E70E94060C8FE60E94060CB7
:103F10008EE60E94060C87E60E94060C80E20E9454
:103F2000060C80E20E94060C80E090E0AAE7B4E470
:103F3000898F9A8FAB8FBC8F698D7A8D8B8D9C8D7D
:103F400020E030E04AEF54E40E941F02DC01CB0184
:103F50008D8B9E8BAF8BB88F6D897E898F89988D65
:103F600020E030E040E85FE30E94790388232CF4EE
:103F700081E090E09C8B8B8B3FC06D897E898F891F
:103F8000988D20E03FEF4FE757E40E941903181681
:103F90004CF5698D7A8D8B8D9C8D20E030E040E270
:103FA00051E40E941F02DC01CB01BC01CD010E9443
:103FB0004900DC01CB019C8B8B8B0FC088EC90E01F
:103FC0009A8B898B89899A890197F1F79A8B898BCA
:103FD0008B899C8901979C8B8B8B8B899C89009703
:103FE00069F714C06D897E898F89988D0E94490078
:103FF000DC01CB019C8B8B8B8B899C89988B8F8769
:104000008F8598890197F1F7988B8F8781E00E94BF
:10401000600B80E80E94600B80E20E94060C80E248
:104020000E94060C80E20E94060C84E50E94060CA9
:1040300082E70E94060C89E70E94060C80E20E943B
:10404000060C81E60E94060C87E60E94060C81E6BB
:104050000E94060C89E60E94060C8EE60E94060C61
:1040600080E20E94060C80E090E0AAE7B4E48B872F
:104070009C87AD87BE876B857C858D859E8520E07E
:1040800030E04AEF54E40E941F02DC01CB018F8331
:104090009887A987BA876F81788589859A8520E076
:1040A00030E040E85FE30E94790388232CF481E04C
:1040B00090E09E838D833FC06F81788589859A8546
:1040C00020E03FEF4FE757E40E94190318164CF524
:1040D0006B857C858D859E8520E030E040E251E453
:1040E0000E941F02DC01CB01BC01CD010E944900EE
:1040F000DC01CB019E838D830FC088EC90E09C8314
:104100008B838B819C810197F1F79C838B838D81BD
:104110009E8101979E838D838D819E81009769F793
:1041200014C06F81788589859A850E944900DC01D9
:10413000CB019E838D838D819E819A838983898122
:104140009A810197F1F79A8389836C960FB6F89458
:10415000DEBF0FBECDBFCF91DF910895DF93CF9328
:10416000CDB7DEB72F970FB6F894DEBF0FBECDBF29
:1041700081E00E94600B80E80E94600B80E20E9458
:10418000060C80E20E94060C80E20E94060C80E28F
:104190000E94060C87E50E94060C85E60E94060C2C
:1041A0008CE60E94060C83E60E94060C8FE60E94B5
:1041B000060C8DE60E94060C85E60E94060C80E245
:1041C0000E94060C80E20E94060C80EC0E94600BAC
:1041D00080E70E94060C82E70E94060C85E60E949A
:1041E000060C83E70E94060C83E70E94060C82E31C
:1041F0000E94060C80E20E94060C84E70E94060CD6
:104200008FE60E94060C80E20E94060C83E60E9464
:10421000060C88E60E94060C81E60E94060C8EE6DB
:104220000E94060C87E60E94060C85E60E94060C9A
:104230000E94AF0D8F878F85823019F40E946D1711
:1042400072C080E090E0A8ECB2E48B879C87AD87D9
:10425000BE876B857C858D859E8520E030E04AEFAA
:1042600054E40E941F02DC01CB018F839887A98749
:10427000BA876F81788589859A8520E030E040E8AB
:104280005FE30E94790388232CF481E090E09E8311
:104290008D833FC06F81788589859A8520E03FEFC7
:1042A0004FE757E40E94190318164CF56B857C857F
:1042B0008D859E8520E030E040E251E40E941F029F
:1042C000DC01CB01BC01CD010E944900DC01CB0126
:1042D0009E838D830FC088EC90E09C838B838B81C1
:1042E0009C810197F1F79C838B838D819E8101973F
:1042F0009E838D838D819E81009769F714C06F81A5
:10430000788589859A850E944900DC01CB019E83CE
:104310008D838D819E819A83898389819A8101977A
:10432000F1F79A8389832F960FB6F894DEBF0FBEFC
:10433000CDBFCF91DF910895DF93CF93CDB7DEB797
:104340006D970FB6F894DEBF0FBECDBF1D8E4AC16C
:104350008091BE00882339F40E94E3058091BE005D
:104360008F5F8093BE0081E00E94600B80E80E9416
:10437000600B80E20E94060C80E20E94060C80E244
:104380000E94060C8EE40E94060C8FE60E94060C2A
:1043900084E70E94060C80E20E94060C81E60E94DF
:1043A000060C8CE60E94060C8CE60E94060C8FE63A
:1043B0000E94060C87E70E94060C85E60E94060C08
:1043C00084E60E94060C80E20E94060C80E20E94B5
:1043D000060C81E20E94060CA2E3B0E0E2E3F0E00A
:1043E000808180618C93A2E3B0E0E2E3F0E0808121
:1043F00080628C9380E090E0A6E9B3E4898F9A8F85
:10440000AB8FBC8F698D7A8D8B8D9C8D20E030E0D9
:104410004AEF54E40E941F02DC01CB018D8B9E8B7E
:10442000AF8BB88F6D897E898F89988D20E030E0C1
:1044300040E85FE30E94790388232CF481E090E058
:104440009C8B8B8B3FC06D897E898F89988D20E0F6
:104450003FEF4FE757E40E94190318164CF5698D9A
:104460007A8D8B8D9C8D20E030E040E251E40E94FB
:104470001F02DC01CB01BC01CD010E944900DC011F
:10448000CB019C8B8B8B0FC088EC90E09A8B898B37
:1044900089899A890197F1F79A8B898B8B899C89F5
:1044A00001979C8B8B8B8B899C89009769F714C033
:1044B0006D897E898F89988D0E944900DC01CB012E
:1044C0009C8B8B8B8B899C89988B8F878F85988908
:1044D0000197F1F7988B8F8781E00E94600BA2E330
:1044E000B0E0E2E3F0E080818F7E8C93A2E3B0E065
:1044F000E2E3F0E080818F7D8C9380E090E0A6E99C
:10450000B3E48B879C87AD87BE876B857C858D8563
:104510009E8520E030E04AEF54E40E941F02DC0157
:10452000CB018F839887A987BA876F817885898522
:104530009A8520E030E040E85FE30E947903882319
:104540002CF481E090E09E838D833FC06F8178855D
:1045500089859A8520E03FEF4FE757E40E941903D1
:1045600018164CF56B857C858D859E8520E030E0A6
:1045700040E251E40E941F02DC01CB01BC01CD01ED
:104580000E944900DC01CB019E838D830FC088EC23
:1045900090E09C838B838B819C810197F1F79C83B6
:1045A0008B838D819E8101979E838D838D819E81DA
:1045B000009769F714C06F81788589859A850E9474
:1045C0004900DC01CB019E838D838D819E819A837E
:1045D000898389819A810197F1F79A8389838D8DE7
:1045E0008F5F8D8F8D8D823308F4B2CEAFCE2F9238
:1045F0003F924F925F926F927F928F929F92AF9273
:10460000BF92CF92DF92EF92FF920F931F93CF93BF
:10461000DF93CDB7DEB7CA1BDB0B0FB6F894DEBF56
:104620000FBECDBF09942A88398848885F846E847C
:104630007D848C849B84AA84B984C884DF80EE80C6
:10464000FD800C811B81AA81B981CE0FD11D0FB6CF
:10465000F894DEBF0FBECDBFED010895FC010190BF
:104660000020E9F7809590958E0F9F1F0895F8948C
:02467000FFCF7A
:1046720041542B434D47443D310041542B434D4758
:10468200463D310041542B434D47573D002B3031BD
:1046920032383138383435383000416C6572743A0A
:1046A20020546869656620686572650041542B4331
:1046B2004D53533D31000000000000000000010294
:0E46C200032A0405062F0708092D25002B3DAD
:00000001FF
